{
  "contractName": "MyContract",
  "abi": [
    {
      "inputs": [
        {
          "internalType": "string",
          "name": "_name",
          "type": "string"
        }
      ],
      "stateMutability": "nonpayable",
      "type": "constructor"
    },
    {
      "anonymous": false,
      "inputs": [
        {
          "indexed": true,
          "internalType": "address",
          "name": "sender",
          "type": "address"
        },
        {
          "indexed": false,
          "internalType": "uint256",
          "name": "amount",
          "type": "uint256"
        }
      ],
      "name": "Pay",
      "type": "event"
    },
    {
      "inputs": [],
      "name": "owner",
      "outputs": [
        {
          "internalType": "address",
          "name": "",
          "type": "address"
        }
      ],
      "stateMutability": "view",
      "type": "function"
    },
    {
      "inputs": [],
      "name": "public_name",
      "outputs": [
        {
          "internalType": "string",
          "name": "",
          "type": "string"
        }
      ],
      "stateMutability": "view",
      "type": "function"
    },
    {
      "inputs": [],
      "name": "externalFunc",
      "outputs": [
        {
          "internalType": "string",
          "name": "",
          "type": "string"
        }
      ],
      "stateMutability": "pure",
      "type": "function"
    },
    {
      "inputs": [],
      "name": "testInternalFunc",
      "outputs": [
        {
          "internalType": "string",
          "name": "",
          "type": "string"
        }
      ],
      "stateMutability": "view",
      "type": "function"
    },
    {
      "inputs": [],
      "name": "pay",
      "outputs": [],
      "stateMutability": "payable",
      "type": "function"
    }
  ],
  "bytecode": "0x60806040523480156200001157600080fd5b506040516200099b3803806200099b833981810160405281019062000037919062000316565b336000806101000a81548173ffffffffffffffffffffffffffffffffffffffff021916908373ffffffffffffffffffffffffffffffffffffffff16021790555080600190805190602001906200008f929190620000c9565b508060029080519060200190620000a8929190620000c9565b508060039080519060200190620000c1929190620000c9565b5050620003cb565b828054620000d79062000396565b90600052602060002090601f016020900481019282620000fb576000855562000147565b82601f106200011657805160ff191683800117855562000147565b8280016001018555821562000147579182015b828111156200014657825182559160200191906001019062000129565b5b5090506200015691906200015a565b5090565b5b80821115620001755760008160009055506001016200015b565b5090565b6000604051905090565b600080fd5b600080fd5b600080fd5b600080fd5b6000601f19601f8301169050919050565b7f4e487b7100000000000000000000000000000000000000000000000000000000600052604160045260246000fd5b620001e28262000197565b810181811067ffffffffffffffff82111715620002045762000203620001a8565b5b80604052505050565b60006200021962000179565b9050620002278282620001d7565b919050565b600067ffffffffffffffff8211156200024a5762000249620001a8565b5b620002558262000197565b9050602081019050919050565b60005b838110156200028257808201518184015260208101905062000265565b8381111562000292576000848401525b50505050565b6000620002af620002a9846200022c565b6200020d565b905082815260208101848484011115620002ce57620002cd62000192565b5b620002db84828562000262565b509392505050565b600082601f830112620002fb57620002fa6200018d565b5b81516200030d84826020860162000298565b91505092915050565b6000602082840312156200032f576200032e62000183565b5b600082015167ffffffffffffffff81111562000350576200034f62000188565b5b6200035e84828501620002e3565b91505092915050565b7f4e487b7100000000000000000000000000000000000000000000000000000000600052602260045260246000fd5b60006002820490506001821680620003af57607f821691505b602082108103620003c557620003c462000367565b5b50919050565b6105c080620003db6000396000f3fe60806040526004361061004a5760003560e01c80631b9265b81461004f57806342b148aa146100595780638da5cb5b146100845780639b788414146100af578063e8e46c41146100da575b600080fd5b610057610105565b005b34801561006557600080fd5b5061006e610155565b60405161007b919061040c565b60405180910390f35b34801561009057600080fd5b50610099610192565b6040516100a6919061046f565b60405180910390f35b3480156100bb57600080fd5b506100c46101b6565b6040516100d1919061040c565b60405180910390f35b3480156100e657600080fd5b506100ef610244565b6040516100fc919061040c565b60405180910390f35b3373ffffffffffffffffffffffffffffffffffffffff167f357b676c439b9e49b4410f8eb8680bee4223724802d8e3fd422e1756f87b475f3460405161014b91906104a3565b60405180910390a2565b60606040518060400160405280601881526020017f65787465726e616c2066756e6374696f6e2063616c6c65640000000000000000815250905090565b60008054906101000a900473ffffffffffffffffffffffffffffffffffffffff1681565b600180546101c3906104ed565b80601f01602080910402602001604051908101604052809291908181526020018280546101ef906104ed565b801561023c5780601f106102115761010080835404028352916020019161023c565b820191906000526020600020905b81548152906001019060200180831161021f57829003601f168201915b505050505081565b606060008054906101000a900473ffffffffffffffffffffffffffffffffffffffff1673ffffffffffffffffffffffffffffffffffffffff163373ffffffffffffffffffffffffffffffffffffffff16146102d4576040517f08c379a00000000000000000000000000000000000000000000000000000000081526004016102cb9061056a565b60405180910390fd5b6102dc6102e1565b905090565b6060600380546102f0906104ed565b80601f016020809104026020016040519081016040528092919081815260200182805461031c906104ed565b80156103695780601f1061033e57610100808354040283529160200191610369565b820191906000526020600020905b81548152906001019060200180831161034c57829003601f168201915b5050505050905090565b600081519050919050565b600082825260208201905092915050565b60005b838110156103ad578082015181840152602081019050610392565b838111156103bc576000848401525b50505050565b6000601f19601f8301169050919050565b60006103de82610373565b6103e8818561037e565b93506103f881856020860161038f565b610401816103c2565b840191505092915050565b6000602082019050818103600083015261042681846103d3565b905092915050565b600073ffffffffffffffffffffffffffffffffffffffff82169050919050565b60006104598261042e565b9050919050565b6104698161044e565b82525050565b60006020820190506104846000830184610460565b92915050565b6000819050919050565b61049d8161048a565b82525050565b60006020820190506104b86000830184610494565b92915050565b7f4e487b7100000000000000000000000000000000000000000000000000000000600052602260045260246000fd5b6000600282049050600182168061050557607f821691505b602082108103610518576105176104be565b5b50919050565b7f4e6f74206f776e65720000000000000000000000000000000000000000000000600082015250565b600061055460098361037e565b915061055f8261051e565b602082019050919050565b6000602082019050818103600083015261058381610547565b905091905056fea2646970667358221220af432afc1f722aa848cf0f7e9f4456a3c4a4f1030336f5abf90fc32161f00c1164736f6c634300080d0033",
  "immutableReferences": {},
  "source": "pragma solidity ^0.8.13;\n\ncontract MyContract {\n    address public owner;\n    string public public_name;\n    string private private_name;\n    string internal internal_name;\n\n    event Pay(address indexed sender, uint amount);\n\n    constructor(string memory _name) {\n        owner = msg.sender;\n        public_name = _name;\n        private_name = _name;\n        internal_name = _name;\n    }\n\n    modifier onlyOwner() {\n        require(msg.sender == owner, \"Not owner\");\n        // Underscore is a special character only used inside\n        // a function modifier and it tells Solidity to\n        // execute the rest of the code.\n        _;\n    }\n\n    function externalFunc() external pure returns (string memory) {\n        return \"external function called\";\n    }\n\n    function internalFunc() internal view returns (string memory) {\n        return internal_name;\n    }\n\n    function testInternalFunc() public onlyOwner view virtual returns (string memory) {\n        return internalFunc();\n    }\n\n    function pay() public payable {\n        emit Pay(msg.sender,msg.value);\n    }\n}",
  "sourcePath": "D:\\Dev\\truffle-sample\\contracts\\MyContract.sol",
  "compiler": {
    "name": "solc",
    "version": "0.8.13+commit.abaa5c0e.Emscripten.clang"
  },
  "schemaVersion": "3.4.10",
  "updatedAt": "2022-11-16T08:31:05.076Z",
  "devdoc": {
    "kind": "dev",
    "methods": {},
    "version": 1
  },
  "userdoc": {
    "kind": "user",
    "methods": {},
    "version": 1
  }
}