{
  "contractName": "Sertifikat",
  "abi": [
    {
      "inputs": [
        {
          "internalType": "string",
          "name": "baseURI",
          "type": "string"
        },
        {
          "internalType": "string",
          "name": "name",
          "type": "string"
        },
        {
          "internalType": "string",
          "name": "symbol",
          "type": "string"
        }
      ],
      "stateMutability": "nonpayable",
      "type": "constructor"
    },
    {
      "anonymous": false,
      "inputs": [
        {
          "indexed": true,
          "internalType": "address",
          "name": "owner",
          "type": "address"
        },
        {
          "indexed": true,
          "internalType": "address",
          "name": "approved",
          "type": "address"
        },
        {
          "indexed": true,
          "internalType": "uint256",
          "name": "tokenId",
          "type": "uint256"
        }
      ],
      "name": "Approval",
      "type": "event"
    },
    {
      "anonymous": false,
      "inputs": [
        {
          "indexed": true,
          "internalType": "address",
          "name": "owner",
          "type": "address"
        },
        {
          "indexed": true,
          "internalType": "address",
          "name": "operator",
          "type": "address"
        },
        {
          "indexed": false,
          "internalType": "bool",
          "name": "approved",
          "type": "bool"
        }
      ],
      "name": "ApprovalForAll",
      "type": "event"
    },
    {
      "anonymous": false,
      "inputs": [
        {
          "indexed": true,
          "internalType": "address",
          "name": "previousOwner",
          "type": "address"
        },
        {
          "indexed": true,
          "internalType": "address",
          "name": "newOwner",
          "type": "address"
        }
      ],
      "name": "OwnershipTransferred",
      "type": "event"
    },
    {
      "anonymous": false,
      "inputs": [
        {
          "indexed": true,
          "internalType": "address",
          "name": "from",
          "type": "address"
        },
        {
          "indexed": true,
          "internalType": "address",
          "name": "to",
          "type": "address"
        },
        {
          "indexed": true,
          "internalType": "uint256",
          "name": "tokenId",
          "type": "uint256"
        }
      ],
      "name": "Transfer",
      "type": "event"
    },
    {
      "inputs": [],
      "name": "BASE_URI",
      "outputs": [
        {
          "internalType": "string",
          "name": "",
          "type": "string"
        }
      ],
      "stateMutability": "view",
      "type": "function"
    },
    {
      "inputs": [
        {
          "internalType": "address",
          "name": "to",
          "type": "address"
        },
        {
          "internalType": "uint256",
          "name": "tokenId",
          "type": "uint256"
        }
      ],
      "name": "approve",
      "outputs": [],
      "stateMutability": "nonpayable",
      "type": "function"
    },
    {
      "inputs": [
        {
          "internalType": "address",
          "name": "owner",
          "type": "address"
        }
      ],
      "name": "balanceOf",
      "outputs": [
        {
          "internalType": "uint256",
          "name": "",
          "type": "uint256"
        }
      ],
      "stateMutability": "view",
      "type": "function"
    },
    {
      "inputs": [
        {
          "internalType": "uint256",
          "name": "tokenId",
          "type": "uint256"
        }
      ],
      "name": "getApproved",
      "outputs": [
        {
          "internalType": "address",
          "name": "",
          "type": "address"
        }
      ],
      "stateMutability": "view",
      "type": "function"
    },
    {
      "inputs": [
        {
          "internalType": "address",
          "name": "owner",
          "type": "address"
        },
        {
          "internalType": "address",
          "name": "operator",
          "type": "address"
        }
      ],
      "name": "isApprovedForAll",
      "outputs": [
        {
          "internalType": "bool",
          "name": "",
          "type": "bool"
        }
      ],
      "stateMutability": "view",
      "type": "function"
    },
    {
      "inputs": [],
      "name": "name",
      "outputs": [
        {
          "internalType": "string",
          "name": "",
          "type": "string"
        }
      ],
      "stateMutability": "view",
      "type": "function"
    },
    {
      "inputs": [],
      "name": "owner",
      "outputs": [
        {
          "internalType": "address",
          "name": "",
          "type": "address"
        }
      ],
      "stateMutability": "view",
      "type": "function"
    },
    {
      "inputs": [
        {
          "internalType": "uint256",
          "name": "tokenId",
          "type": "uint256"
        }
      ],
      "name": "ownerOf",
      "outputs": [
        {
          "internalType": "address",
          "name": "",
          "type": "address"
        }
      ],
      "stateMutability": "view",
      "type": "function"
    },
    {
      "inputs": [],
      "name": "renounceOwnership",
      "outputs": [],
      "stateMutability": "nonpayable",
      "type": "function"
    },
    {
      "inputs": [
        {
          "internalType": "address",
          "name": "from",
          "type": "address"
        },
        {
          "internalType": "address",
          "name": "to",
          "type": "address"
        },
        {
          "internalType": "uint256",
          "name": "tokenId",
          "type": "uint256"
        }
      ],
      "name": "safeTransferFrom",
      "outputs": [],
      "stateMutability": "nonpayable",
      "type": "function"
    },
    {
      "inputs": [
        {
          "internalType": "address",
          "name": "from",
          "type": "address"
        },
        {
          "internalType": "address",
          "name": "to",
          "type": "address"
        },
        {
          "internalType": "uint256",
          "name": "tokenId",
          "type": "uint256"
        },
        {
          "internalType": "bytes",
          "name": "data",
          "type": "bytes"
        }
      ],
      "name": "safeTransferFrom",
      "outputs": [],
      "stateMutability": "nonpayable",
      "type": "function"
    },
    {
      "inputs": [
        {
          "internalType": "address",
          "name": "operator",
          "type": "address"
        },
        {
          "internalType": "bool",
          "name": "approved",
          "type": "bool"
        }
      ],
      "name": "setApprovalForAll",
      "outputs": [],
      "stateMutability": "nonpayable",
      "type": "function"
    },
    {
      "inputs": [
        {
          "internalType": "bytes4",
          "name": "interfaceId",
          "type": "bytes4"
        }
      ],
      "name": "supportsInterface",
      "outputs": [
        {
          "internalType": "bool",
          "name": "",
          "type": "bool"
        }
      ],
      "stateMutability": "view",
      "type": "function"
    },
    {
      "inputs": [],
      "name": "symbol",
      "outputs": [
        {
          "internalType": "string",
          "name": "",
          "type": "string"
        }
      ],
      "stateMutability": "view",
      "type": "function"
    },
    {
      "inputs": [
        {
          "internalType": "uint256",
          "name": "index",
          "type": "uint256"
        }
      ],
      "name": "tokenByIndex",
      "outputs": [
        {
          "internalType": "uint256",
          "name": "",
          "type": "uint256"
        }
      ],
      "stateMutability": "view",
      "type": "function"
    },
    {
      "inputs": [
        {
          "internalType": "address",
          "name": "owner",
          "type": "address"
        },
        {
          "internalType": "uint256",
          "name": "index",
          "type": "uint256"
        }
      ],
      "name": "tokenOfOwnerByIndex",
      "outputs": [
        {
          "internalType": "uint256",
          "name": "",
          "type": "uint256"
        }
      ],
      "stateMutability": "view",
      "type": "function"
    },
    {
      "inputs": [
        {
          "internalType": "uint256",
          "name": "tokenId",
          "type": "uint256"
        }
      ],
      "name": "tokenURI",
      "outputs": [
        {
          "internalType": "string",
          "name": "",
          "type": "string"
        }
      ],
      "stateMutability": "view",
      "type": "function"
    },
    {
      "inputs": [],
      "name": "totalSupply",
      "outputs": [
        {
          "internalType": "uint256",
          "name": "",
          "type": "uint256"
        }
      ],
      "stateMutability": "view",
      "type": "function"
    },
    {
      "inputs": [
        {
          "internalType": "address",
          "name": "from",
          "type": "address"
        },
        {
          "internalType": "address",
          "name": "to",
          "type": "address"
        },
        {
          "internalType": "uint256",
          "name": "tokenId",
          "type": "uint256"
        }
      ],
      "name": "transferFrom",
      "outputs": [],
      "stateMutability": "nonpayable",
      "type": "function"
    },
    {
      "inputs": [
        {
          "internalType": "address",
          "name": "newOwner",
          "type": "address"
        }
      ],
      "name": "transferOwnership",
      "outputs": [],
      "stateMutability": "nonpayable",
      "type": "function"
    },
    {
      "inputs": [
        {
          "internalType": "address",
          "name": "addr",
          "type": "address"
        }
      ],
      "name": "mint",
      "outputs": [
        {
          "internalType": "uint256",
          "name": "",
          "type": "uint256"
        }
      ],
      "stateMutability": "payable",
      "type": "function"
    }
  ],
  "bytecode": "0x60806040523480156200001157600080fd5b5060405162003aca38038062003aca8339818101604052810190620000379190620003ca565b81818160009080519060200190620000519291906200017d565b5080600190805190602001906200006a9291906200017d565b5050506200008d62000081620000af60201b60201c565b620000b760201b60201c565b82600b9080519060200190620000a59291906200017d565b50505050620004e7565b600033905090565b6000600a60009054906101000a900473ffffffffffffffffffffffffffffffffffffffff16905081600a60006101000a81548173ffffffffffffffffffffffffffffffffffffffff021916908373ffffffffffffffffffffffffffffffffffffffff1602179055508173ffffffffffffffffffffffffffffffffffffffff168173ffffffffffffffffffffffffffffffffffffffff167f8be0079c531659141344cd1fd0a4f28419497f9722a3daafe3b4186f6b6457e060405160405180910390a35050565b8280546200018b90620004b2565b90600052602060002090601f016020900481019282620001af5760008555620001fb565b82601f10620001ca57805160ff1916838001178555620001fb565b82800160010185558215620001fb579182015b82811115620001fa578251825591602001919060010190620001dd565b5b5090506200020a91906200020e565b5090565b5b80821115620002295760008160009055506001016200020f565b5090565b6000604051905090565b600080fd5b600080fd5b600080fd5b600080fd5b6000601f19601f8301169050919050565b7f4e487b7100000000000000000000000000000000000000000000000000000000600052604160045260246000fd5b62000296826200024b565b810181811067ffffffffffffffff82111715620002b857620002b76200025c565b5b80604052505050565b6000620002cd6200022d565b9050620002db82826200028b565b919050565b600067ffffffffffffffff821115620002fe57620002fd6200025c565b5b62000309826200024b565b9050602081019050919050565b60005b838110156200033657808201518184015260208101905062000319565b8381111562000346576000848401525b50505050565b6000620003636200035d84620002e0565b620002c1565b90508281526020810184848401111562000382576200038162000246565b5b6200038f84828562000316565b509392505050565b600082601f830112620003af57620003ae62000241565b5b8151620003c18482602086016200034c565b91505092915050565b600080600060608486031215620003e657620003e562000237565b5b600084015167ffffffffffffffff8111156200040757620004066200023c565b5b620004158682870162000397565b935050602084015167ffffffffffffffff8111156200043957620004386200023c565b5b620004478682870162000397565b925050604084015167ffffffffffffffff8111156200046b576200046a6200023c565b5b620004798682870162000397565b9150509250925092565b7f4e487b7100000000000000000000000000000000000000000000000000000000600052602260045260246000fd5b60006002820490506001821680620004cb57607f821691505b602082108103620004e157620004e062000483565b5b50919050565b6135d380620004f76000396000f3fe60806040526004361061012a5760003560e01c80636a627842116100ab578063a22cb4651161006f578063a22cb4651461040b578063b88d4fde14610434578063c87b56dd1461045d578063dbddb26a1461049a578063e985e9c5146104c5578063f2fde38b146105025761012a565b80636a6278421461033157806370a0823114610361578063715018a61461039e5780638da5cb5b146103b557806395d89b41146103e05761012a565b806323b872dd116100f257806323b872dd146102285780632f745c591461025157806342842e0e1461028e5780634f6ccce7146102b75780636352211e146102f45761012a565b806301ffc9a71461012f57806306fdde031461016c578063081812fc14610197578063095ea7b3146101d457806318160ddd146101fd575b600080fd5b34801561013b57600080fd5b50610156600480360381019061015191906123f9565b61052b565b6040516101639190612441565b60405180910390f35b34801561017857600080fd5b506101816105a5565b60405161018e91906124f5565b60405180910390f35b3480156101a357600080fd5b506101be60048036038101906101b9919061254d565b610637565b6040516101cb91906125bb565b60405180910390f35b3480156101e057600080fd5b506101fb60048036038101906101f69190612602565b61067d565b005b34801561020957600080fd5b50610212610794565b60405161021f9190612651565b60405180910390f35b34801561023457600080fd5b5061024f600480360381019061024a919061266c565b6107a1565b005b34801561025d57600080fd5b5061027860048036038101906102739190612602565b610801565b6040516102859190612651565b60405180910390f35b34801561029a57600080fd5b506102b560048036038101906102b0919061266c565b6108a6565b005b3480156102c357600080fd5b506102de60048036038101906102d9919061254d565b6108c6565b6040516102eb9190612651565b60405180910390f35b34801561030057600080fd5b5061031b6004803603810190610316919061254d565b610937565b60405161032891906125bb565b60405180910390f35b61034b600480360381019061034691906126bf565b6109bd565b6040516103589190612651565b60405180910390f35b34801561036d57600080fd5b50610388600480360381019061038391906126bf565b6109f8565b6040516103959190612651565b60405180910390f35b3480156103aa57600080fd5b506103b3610aaf565b005b3480156103c157600080fd5b506103ca610ac3565b6040516103d791906125bb565b60405180910390f35b3480156103ec57600080fd5b506103f5610aed565b60405161040291906124f5565b60405180910390f35b34801561041757600080fd5b50610432600480360381019061042d9190612718565b610b7f565b005b34801561044057600080fd5b5061045b6004803603810190610456919061288d565b610b95565b005b34801561046957600080fd5b50610484600480360381019061047f919061254d565b610bf7565b60405161049191906124f5565b60405180910390f35b3480156104a657600080fd5b506104af610c5f565b6040516104bc91906124f5565b60405180910390f35b3480156104d157600080fd5b506104ec60048036038101906104e79190612910565b610ced565b6040516104f99190612441565b60405180910390f35b34801561050e57600080fd5b50610529600480360381019061052491906126bf565b610d81565b005b60007f780e9d63000000000000000000000000000000000000000000000000000000007bffffffffffffffffffffffffffffffffffffffffffffffffffffffff1916827bffffffffffffffffffffffffffffffffffffffffffffffffffffffff1916148061059e575061059d82610e04565b5b9050919050565b6060600080546105b49061297f565b80601f01602080910402602001604051908101604052809291908181526020018280546105e09061297f565b801561062d5780601f106106025761010080835404028352916020019161062d565b820191906000526020600020905b81548152906001019060200180831161061057829003601f168201915b5050505050905090565b600061064282610ee6565b6004600083815260200190815260200160002060009054906101000a900473ffffffffffffffffffffffffffffffffffffffff169050919050565b600061068882610937565b90508073ffffffffffffffffffffffffffffffffffffffff168373ffffffffffffffffffffffffffffffffffffffff16036106f8576040517f08c379a00000000000000000000000000000000000000000000000000000000081526004016106ef90612a22565b60405180910390fd5b8073ffffffffffffffffffffffffffffffffffffffff16610717610f31565b73ffffffffffffffffffffffffffffffffffffffff161480610746575061074581610740610f31565b610ced565b5b610785576040517f08c379a000000000000000000000000000000000000000000000000000000000815260040161077c90612ab4565b60405180910390fd5b61078f8383610f39565b505050565b6000600880549050905090565b6107b26107ac610f31565b82610ff2565b6107f1576040517f08c379a00000000000000000000000000000000000000000000000000000000081526004016107e890612b46565b60405180910390fd5b6107fc838383611087565b505050565b600061080c836109f8565b821061084d576040517f08c379a000000000000000000000000000000000000000000000000000000000815260040161084490612bd8565b60405180910390fd5b600660008473ffffffffffffffffffffffffffffffffffffffff1673ffffffffffffffffffffffffffffffffffffffff168152602001908152602001600020600083815260200190815260200160002054905092915050565b6108c183838360405180602001604052806000815250610b95565b505050565b60006108d0610794565b8210610911576040517f08c379a000000000000000000000000000000000000000000000000000000000815260040161090890612c6a565b60405180910390fd5b6008828154811061092557610924612c8a565b5b90600052602060002001549050919050565b60008061094383611380565b9050600073ffffffffffffffffffffffffffffffffffffffff168173ffffffffffffffffffffffffffffffffffffffff16036109b4576040517f08c379a00000000000000000000000000000000000000000000000000000000081526004016109ab90612d05565b60405180910390fd5b80915050919050565b60006109c76113bd565b60006109d1610794565b905060006001826109e29190612d54565b90506109ee848261143b565b8092505050919050565b60008073ffffffffffffffffffffffffffffffffffffffff168273ffffffffffffffffffffffffffffffffffffffff1603610a68576040517f08c379a0000000000000000000000000000000000000000000000000000000008152600401610a5f90612e1c565b60405180910390fd5b600360008373ffffffffffffffffffffffffffffffffffffffff1673ffffffffffffffffffffffffffffffffffffffff168152602001908152602001600020549050919050565b610ab76113bd565b610ac16000611459565b565b6000600a60009054906101000a900473ffffffffffffffffffffffffffffffffffffffff16905090565b606060018054610afc9061297f565b80601f0160208091040260200160405190810160405280929190818152602001828054610b289061297f565b8015610b755780601f10610b4a57610100808354040283529160200191610b75565b820191906000526020600020905b815481529060010190602001808311610b5857829003601f168201915b5050505050905090565b610b91610b8a610f31565b838361151f565b5050565b610ba6610ba0610f31565b83610ff2565b610be5576040517f08c379a0000000000000000000000000000000000000000000000000000000008152600401610bdc90612b46565b60405180910390fd5b610bf18484848461168b565b50505050565b6060610c0282610ee6565b6000610c0c6116e7565b90506000815111610c2c5760405180602001604052806000815250610c57565b80610c368461170f565b604051602001610c47929190612e78565b6040516020818303038152906040525b915050919050565b600b8054610c6c9061297f565b80601f0160208091040260200160405190810160405280929190818152602001828054610c989061297f565b8015610ce55780601f10610cba57610100808354040283529160200191610ce5565b820191906000526020600020905b815481529060010190602001808311610cc857829003601f168201915b505050505081565b6000600560008473ffffffffffffffffffffffffffffffffffffffff1673ffffffffffffffffffffffffffffffffffffffff16815260200190815260200160002060008373ffffffffffffffffffffffffffffffffffffffff1673ffffffffffffffffffffffffffffffffffffffff16815260200190815260200160002060009054906101000a900460ff16905092915050565b610d896113bd565b600073ffffffffffffffffffffffffffffffffffffffff168173ffffffffffffffffffffffffffffffffffffffff1603610df8576040517f08c379a0000000000000000000000000000000000000000000000000000000008152600401610def90612f0e565b60405180910390fd5b610e0181611459565b50565b60007f80ac58cd000000000000000000000000000000000000000000000000000000007bffffffffffffffffffffffffffffffffffffffffffffffffffffffff1916827bffffffffffffffffffffffffffffffffffffffffffffffffffffffff19161480610ecf57507f5b5e139f000000000000000000000000000000000000000000000000000000007bffffffffffffffffffffffffffffffffffffffffffffffffffffffff1916827bffffffffffffffffffffffffffffffffffffffffffffffffffffffff1916145b80610edf5750610ede826117dd565b5b9050919050565b610eef81611847565b610f2e576040517f08c379a0000000000000000000000000000000000000000000000000000000008152600401610f2590612d05565b60405180910390fd5b50565b600033905090565b816004600083815260200190815260200160002060006101000a81548173ffffffffffffffffffffffffffffffffffffffff021916908373ffffffffffffffffffffffffffffffffffffffff160217905550808273ffffffffffffffffffffffffffffffffffffffff16610fac83610937565b73ffffffffffffffffffffffffffffffffffffffff167f8c5be1e5ebec7d5bd14f71427d1e84f3dd0314c0f7b2291e5b200ac8c7c3b92560405160405180910390a45050565b600080610ffe83610937565b90508073ffffffffffffffffffffffffffffffffffffffff168473ffffffffffffffffffffffffffffffffffffffff161480611040575061103f8185610ced565b5b8061107e57508373ffffffffffffffffffffffffffffffffffffffff1661106684610637565b73ffffffffffffffffffffffffffffffffffffffff16145b91505092915050565b8273ffffffffffffffffffffffffffffffffffffffff166110a782610937565b73ffffffffffffffffffffffffffffffffffffffff16146110fd576040517f08c379a00000000000000000000000000000000000000000000000000000000081526004016110f490612fa0565b60405180910390fd5b600073ffffffffffffffffffffffffffffffffffffffff168273ffffffffffffffffffffffffffffffffffffffff160361116c576040517f08c379a000000000000000000000000000000000000000000000000000000000815260040161116390613032565b60405180910390fd5b6111798383836001611888565b8273ffffffffffffffffffffffffffffffffffffffff1661119982610937565b73ffffffffffffffffffffffffffffffffffffffff16146111ef576040517f08c379a00000000000000000000000000000000000000000000000000000000081526004016111e690612fa0565b60405180910390fd5b6004600082815260200190815260200160002060006101000a81549073ffffffffffffffffffffffffffffffffffffffff02191690556001600360008573ffffffffffffffffffffffffffffffffffffffff1673ffffffffffffffffffffffffffffffffffffffff168152602001908152602001600020600082825403925050819055506001600360008473ffffffffffffffffffffffffffffffffffffffff1673ffffffffffffffffffffffffffffffffffffffff16815260200190815260200160002060008282540192505081905550816002600083815260200190815260200160002060006101000a81548173ffffffffffffffffffffffffffffffffffffffff021916908373ffffffffffffffffffffffffffffffffffffffff160217905550808273ffffffffffffffffffffffffffffffffffffffff168473ffffffffffffffffffffffffffffffffffffffff167fddf252ad1be2c89b69c2b068fc378daa952ba7f163c4a11628f55a4df523b3ef60405160405180910390a461137b83838360016119e6565b505050565b60006002600083815260200190815260200160002060009054906101000a900473ffffffffffffffffffffffffffffffffffffffff169050919050565b6113c5610f31565b73ffffffffffffffffffffffffffffffffffffffff166113e3610ac3565b73ffffffffffffffffffffffffffffffffffffffff1614611439576040517f08c379a00000000000000000000000000000000000000000000000000000000081526004016114309061309e565b60405180910390fd5b565b6114558282604051806020016040528060008152506119ec565b5050565b6000600a60009054906101000a900473ffffffffffffffffffffffffffffffffffffffff16905081600a60006101000a81548173ffffffffffffffffffffffffffffffffffffffff021916908373ffffffffffffffffffffffffffffffffffffffff1602179055508173ffffffffffffffffffffffffffffffffffffffff168173ffffffffffffffffffffffffffffffffffffffff167f8be0079c531659141344cd1fd0a4f28419497f9722a3daafe3b4186f6b6457e060405160405180910390a35050565b8173ffffffffffffffffffffffffffffffffffffffff168373ffffffffffffffffffffffffffffffffffffffff160361158d576040517f08c379a00000000000000000000000000000000000000000000000000000000081526004016115849061310a565b60405180910390fd5b80600560008573ffffffffffffffffffffffffffffffffffffffff1673ffffffffffffffffffffffffffffffffffffffff16815260200190815260200160002060008473ffffffffffffffffffffffffffffffffffffffff1673ffffffffffffffffffffffffffffffffffffffff16815260200190815260200160002060006101000a81548160ff0219169083151502179055508173ffffffffffffffffffffffffffffffffffffffff168373ffffffffffffffffffffffffffffffffffffffff167f17307eab39ab6107e8899845ad3d59bd9653f200f220920489ca2b5937696c318360405161167e9190612441565b60405180910390a3505050565b611696848484611087565b6116a284848484611a47565b6116e1576040517f08c379a00000000000000000000000000000000000000000000000000000000081526004016116d89061319c565b60405180910390fd5b50505050565b6060600b6040516020016116fb919061329c565b604051602081830303815290604052905090565b60606000600161171e84611bce565b01905060008167ffffffffffffffff81111561173d5761173c612762565b5b6040519080825280601f01601f19166020018201604052801561176f5781602001600182028036833780820191505090505b509050600082602001820190505b6001156117d2578080600190039150507f3031323334353637383961626364656600000000000000000000000000000000600a86061a8153600a85816117c6576117c56132be565b5b0494506000850361177d575b819350505050919050565b60007f01ffc9a7000000000000000000000000000000000000000000000000000000007bffffffffffffffffffffffffffffffffffffffffffffffffffffffff1916827bffffffffffffffffffffffffffffffffffffffffffffffffffffffff1916149050919050565b60008073ffffffffffffffffffffffffffffffffffffffff1661186983611380565b73ffffffffffffffffffffffffffffffffffffffff1614159050919050565b61189484848484611d21565b60018111156118d8576040517f08c379a00000000000000000000000000000000000000000000000000000000081526004016118cf9061335f565b60405180910390fd5b6000829050600073ffffffffffffffffffffffffffffffffffffffff168573ffffffffffffffffffffffffffffffffffffffff160361191f5761191a81611e47565b61195e565b8373ffffffffffffffffffffffffffffffffffffffff168573ffffffffffffffffffffffffffffffffffffffff161461195d5761195c8582611e90565b5b5b600073ffffffffffffffffffffffffffffffffffffffff168473ffffffffffffffffffffffffffffffffffffffff16036119a05761199b81611ffd565b6119df565b8473ffffffffffffffffffffffffffffffffffffffff168473ffffffffffffffffffffffffffffffffffffffff16146119de576119dd84826120ce565b5b5b5050505050565b50505050565b6119f6838361214d565b611a036000848484611a47565b611a42576040517f08c379a0000000000000000000000000000000000000000000000000000000008152600401611a399061319c565b60405180910390fd5b505050565b6000611a688473ffffffffffffffffffffffffffffffffffffffff1661236a565b15611bc1578373ffffffffffffffffffffffffffffffffffffffff1663150b7a02611a91610f31565b8786866040518563ffffffff1660e01b8152600401611ab394939291906133d4565b6020604051808303816000875af1925050508015611aef57506040513d601f19601f82011682018060405250810190611aec9190613435565b60015b611b71573d8060008114611b1f576040519150601f19603f3d011682016040523d82523d6000602084013e611b24565b606091505b506000815103611b69576040517f08c379a0000000000000000000000000000000000000000000000000000000008152600401611b609061319c565b60405180910390fd5b805181602001fd5b63150b7a0260e01b7bffffffffffffffffffffffffffffffffffffffffffffffffffffffff1916817bffffffffffffffffffffffffffffffffffffffffffffffffffffffff191614915050611bc6565b600190505b949350505050565b600080600090507a184f03e93ff9f4daa797ed6e38ed64bf6a1f0100000000000000008310611c2c577a184f03e93ff9f4daa797ed6e38ed64bf6a1f0100000000000000008381611c2257611c216132be565b5b0492506040810190505b6d04ee2d6d415b85acef81000000008310611c69576d04ee2d6d415b85acef81000000008381611c5f57611c5e6132be565b5b0492506020810190505b662386f26fc100008310611c9857662386f26fc100008381611c8e57611c8d6132be565b5b0492506010810190505b6305f5e1008310611cc1576305f5e1008381611cb757611cb66132be565b5b0492506008810190505b6127108310611ce6576127108381611cdc57611cdb6132be565b5b0492506004810190505b60648310611d095760648381611cff57611cfe6132be565b5b0492506002810190505b600a8310611d18576001810190505b80915050919050565b6001811115611e4157600073ffffffffffffffffffffffffffffffffffffffff168473ffffffffffffffffffffffffffffffffffffffff1614611db55780600360008673ffffffffffffffffffffffffffffffffffffffff1673ffffffffffffffffffffffffffffffffffffffff1681526020019081526020016000206000828254611dad9190613462565b925050819055505b600073ffffffffffffffffffffffffffffffffffffffff168373ffffffffffffffffffffffffffffffffffffffff1614611e405780600360008573ffffffffffffffffffffffffffffffffffffffff1673ffffffffffffffffffffffffffffffffffffffff1681526020019081526020016000206000828254611e389190612d54565b925050819055505b5b50505050565b6008805490506009600083815260200190815260200160002081905550600881908060018154018082558091505060019003906000526020600020016000909190919091505550565b60006001611e9d846109f8565b611ea79190613462565b9050600060076000848152602001908152602001600020549050818114611f8c576000600660008673ffffffffffffffffffffffffffffffffffffffff1673ffffffffffffffffffffffffffffffffffffffff168152602001908152602001600020600084815260200190815260200160002054905080600660008773ffffffffffffffffffffffffffffffffffffffff1673ffffffffffffffffffffffffffffffffffffffff168152602001908152602001600020600084815260200190815260200160002081905550816007600083815260200190815260200160002081905550505b6007600084815260200190815260200160002060009055600660008573ffffffffffffffffffffffffffffffffffffffff1673ffffffffffffffffffffffffffffffffffffffff16815260200190815260200160002060008381526020019081526020016000206000905550505050565b600060016008805490506120119190613462565b905060006009600084815260200190815260200160002054905060006008838154811061204157612040612c8a565b5b90600052602060002001549050806008838154811061206357612062612c8a565b5b9060005260206000200181905550816009600083815260200190815260200160002081905550600960008581526020019081526020016000206000905560088054806120b2576120b1613496565b5b6001900381819060005260206000200160009055905550505050565b60006120d9836109f8565b905081600660008573ffffffffffffffffffffffffffffffffffffffff1673ffffffffffffffffffffffffffffffffffffffff168152602001908152602001600020600083815260200190815260200160002081905550806007600084815260200190815260200160002081905550505050565b600073ffffffffffffffffffffffffffffffffffffffff168273ffffffffffffffffffffffffffffffffffffffff16036121bc576040517f08c379a00000000000000000000000000000000000000000000000000000000081526004016121b390613511565b60405180910390fd5b6121c581611847565b15612205576040517f08c379a00000000000000000000000000000000000000000000000000000000081526004016121fc9061357d565b60405180910390fd5b612213600083836001611888565b61221c81611847565b1561225c576040517f08c379a00000000000000000000000000000000000000000000000000000000081526004016122539061357d565b60405180910390fd5b6001600360008473ffffffffffffffffffffffffffffffffffffffff1673ffffffffffffffffffffffffffffffffffffffff16815260200190815260200160002060008282540192505081905550816002600083815260200190815260200160002060006101000a81548173ffffffffffffffffffffffffffffffffffffffff021916908373ffffffffffffffffffffffffffffffffffffffff160217905550808273ffffffffffffffffffffffffffffffffffffffff16600073ffffffffffffffffffffffffffffffffffffffff167fddf252ad1be2c89b69c2b068fc378daa952ba7f163c4a11628f55a4df523b3ef60405160405180910390a46123666000838360016119e6565b5050565b6000808273ffffffffffffffffffffffffffffffffffffffff163b119050919050565b6000604051905090565b600080fd5b600080fd5b60007fffffffff0000000000000000000000000000000000000000000000000000000082169050919050565b6123d6816123a1565b81146123e157600080fd5b50565b6000813590506123f3816123cd565b92915050565b60006020828403121561240f5761240e612397565b5b600061241d848285016123e4565b91505092915050565b60008115159050919050565b61243b81612426565b82525050565b60006020820190506124566000830184612432565b92915050565b600081519050919050565b600082825260208201905092915050565b60005b8381101561249657808201518184015260208101905061247b565b838111156124a5576000848401525b50505050565b6000601f19601f8301169050919050565b60006124c78261245c565b6124d18185612467565b93506124e1818560208601612478565b6124ea816124ab565b840191505092915050565b6000602082019050818103600083015261250f81846124bc565b905092915050565b6000819050919050565b61252a81612517565b811461253557600080fd5b50565b60008135905061254781612521565b92915050565b60006020828403121561256357612562612397565b5b600061257184828501612538565b91505092915050565b600073ffffffffffffffffffffffffffffffffffffffff82169050919050565b60006125a58261257a565b9050919050565b6125b58161259a565b82525050565b60006020820190506125d060008301846125ac565b92915050565b6125df8161259a565b81146125ea57600080fd5b50565b6000813590506125fc816125d6565b92915050565b6000806040838503121561261957612618612397565b5b6000612627858286016125ed565b925050602061263885828601612538565b9150509250929050565b61264b81612517565b82525050565b60006020820190506126666000830184612642565b92915050565b60008060006060848603121561268557612684612397565b5b6000612693868287016125ed565b93505060206126a4868287016125ed565b92505060406126b586828701612538565b9150509250925092565b6000602082840312156126d5576126d4612397565b5b60006126e3848285016125ed565b91505092915050565b6126f581612426565b811461270057600080fd5b50565b600081359050612712816126ec565b92915050565b6000806040838503121561272f5761272e612397565b5b600061273d858286016125ed565b925050602061274e85828601612703565b9150509250929050565b600080fd5b600080fd5b7f4e487b7100000000000000000000000000000000000000000000000000000000600052604160045260246000fd5b61279a826124ab565b810181811067ffffffffffffffff821117156127b9576127b8612762565b5b80604052505050565b60006127cc61238d565b90506127d88282612791565b919050565b600067ffffffffffffffff8211156127f8576127f7612762565b5b612801826124ab565b9050602081019050919050565b82818337600083830152505050565b600061283061282b846127dd565b6127c2565b90508281526020810184848401111561284c5761284b61275d565b5b61285784828561280e565b509392505050565b600082601f83011261287457612873612758565b5b813561288484826020860161281d565b91505092915050565b600080600080608085870312156128a7576128a6612397565b5b60006128b5878288016125ed565b94505060206128c6878288016125ed565b93505060406128d787828801612538565b925050606085013567ffffffffffffffff8111156128f8576128f761239c565b5b6129048782880161285f565b91505092959194509250565b6000806040838503121561292757612926612397565b5b6000612935858286016125ed565b9250506020612946858286016125ed565b9150509250929050565b7f4e487b7100000000000000000000000000000000000000000000000000000000600052602260045260246000fd5b6000600282049050600182168061299757607f821691505b6020821081036129aa576129a9612950565b5b50919050565b7f4552433732313a20617070726f76616c20746f2063757272656e74206f776e6560008201527f7200000000000000000000000000000000000000000000000000000000000000602082015250565b6000612a0c602183612467565b9150612a17826129b0565b604082019050919050565b60006020820190508181036000830152612a3b816129ff565b9050919050565b7f4552433732313a20617070726f76652063616c6c6572206973206e6f7420746f60008201527f6b656e206f776e6572206f7220617070726f76656420666f7220616c6c000000602082015250565b6000612a9e603d83612467565b9150612aa982612a42565b604082019050919050565b60006020820190508181036000830152612acd81612a91565b9050919050565b7f4552433732313a2063616c6c6572206973206e6f7420746f6b656e206f776e6560008201527f72206f7220617070726f76656400000000000000000000000000000000000000602082015250565b6000612b30602d83612467565b9150612b3b82612ad4565b604082019050919050565b60006020820190508181036000830152612b5f81612b23565b9050919050565b7f455243373231456e756d657261626c653a206f776e657220696e646578206f7560008201527f74206f6620626f756e6473000000000000000000000000000000000000000000602082015250565b6000612bc2602b83612467565b9150612bcd82612b66565b604082019050919050565b60006020820190508181036000830152612bf181612bb5565b9050919050565b7f455243373231456e756d657261626c653a20676c6f62616c20696e646578206f60008201527f7574206f6620626f756e64730000000000000000000000000000000000000000602082015250565b6000612c54602c83612467565b9150612c5f82612bf8565b604082019050919050565b60006020820190508181036000830152612c8381612c47565b9050919050565b7f4e487b7100000000000000000000000000000000000000000000000000000000600052603260045260246000fd5b7f4552433732313a20696e76616c696420746f6b656e2049440000000000000000600082015250565b6000612cef601883612467565b9150612cfa82612cb9565b602082019050919050565b60006020820190508181036000830152612d1e81612ce2565b9050919050565b7f4e487b7100000000000000000000000000000000000000000000000000000000600052601160045260246000fd5b6000612d5f82612517565b9150612d6a83612517565b9250827fffffffffffffffffffffffffffffffffffffffffffffffffffffffffffffffff03821115612d9f57612d9e612d25565b5b828201905092915050565b7f4552433732313a2061646472657373207a65726f206973206e6f74206120766160008201527f6c6964206f776e65720000000000000000000000000000000000000000000000602082015250565b6000612e06602983612467565b9150612e1182612daa565b604082019050919050565b60006020820190508181036000830152612e3581612df9565b9050919050565b600081905092915050565b6000612e528261245c565b612e5c8185612e3c565b9350612e6c818560208601612478565b80840191505092915050565b6000612e848285612e47565b9150612e908284612e47565b91508190509392505050565b7f4f776e61626c653a206e6577206f776e657220697320746865207a65726f206160008201527f6464726573730000000000000000000000000000000000000000000000000000602082015250565b6000612ef8602683612467565b9150612f0382612e9c565b604082019050919050565b60006020820190508181036000830152612f2781612eeb565b9050919050565b7f4552433732313a207472616e736665722066726f6d20696e636f72726563742060008201527f6f776e6572000000000000000000000000000000000000000000000000000000602082015250565b6000612f8a602583612467565b9150612f9582612f2e565b604082019050919050565b60006020820190508181036000830152612fb981612f7d565b9050919050565b7f4552433732313a207472616e7366657220746f20746865207a65726f2061646460008201527f7265737300000000000000000000000000000000000000000000000000000000602082015250565b600061301c602483612467565b915061302782612fc0565b604082019050919050565b6000602082019050818103600083015261304b8161300f565b9050919050565b7f4f776e61626c653a2063616c6c6572206973206e6f7420746865206f776e6572600082015250565b6000613088602083612467565b915061309382613052565b602082019050919050565b600060208201905081810360008301526130b78161307b565b9050919050565b7f4552433732313a20617070726f766520746f2063616c6c657200000000000000600082015250565b60006130f4601983612467565b91506130ff826130be565b602082019050919050565b60006020820190508181036000830152613123816130e7565b9050919050565b7f4552433732313a207472616e7366657220746f206e6f6e20455243373231526560008201527f63656976657220696d706c656d656e7465720000000000000000000000000000602082015250565b6000613186603283612467565b91506131918261312a565b604082019050919050565b600060208201905081810360008301526131b581613179565b9050919050565b60008190508160005260206000209050919050565b600081546131de8161297f565b6131e88186612e3c565b94506001821660008114613203576001811461321457613247565b60ff19831686528186019350613247565b61321d856131bc565b60005b8381101561323f57815481890152600182019150602081019050613220565b838801955050505b50505092915050565b7f2f00000000000000000000000000000000000000000000000000000000000000600082015250565b6000613286600183612e3c565b915061329182613250565b600182019050919050565b60006132a882846131d1565b91506132b382613279565b915081905092915050565b7f4e487b7100000000000000000000000000000000000000000000000000000000600052601260045260246000fd5b7f455243373231456e756d657261626c653a20636f6e736563757469766520747260008201527f616e7366657273206e6f7420737570706f727465640000000000000000000000602082015250565b6000613349603583612467565b9150613354826132ed565b604082019050919050565b600060208201905081810360008301526133788161333c565b9050919050565b600081519050919050565b600082825260208201905092915050565b60006133a68261337f565b6133b0818561338a565b93506133c0818560208601612478565b6133c9816124ab565b840191505092915050565b60006080820190506133e960008301876125ac565b6133f660208301866125ac565b6134036040830185612642565b8181036060830152613415818461339b565b905095945050505050565b60008151905061342f816123cd565b92915050565b60006020828403121561344b5761344a612397565b5b600061345984828501613420565b91505092915050565b600061346d82612517565b915061347883612517565b92508282101561348b5761348a612d25565b5b828203905092915050565b7f4e487b7100000000000000000000000000000000000000000000000000000000600052603160045260246000fd5b7f4552433732313a206d696e7420746f20746865207a65726f2061646472657373600082015250565b60006134fb602083612467565b9150613506826134c5565b602082019050919050565b6000602082019050818103600083015261352a816134ee565b9050919050565b7f4552433732313a20746f6b656e20616c7265616479206d696e74656400000000600082015250565b6000613567601c83612467565b915061357282613531565b602082019050919050565b600060208201905081810360008301526135968161355a565b905091905056fea26469706673582212206de43d41ace3d879e8f5a4c21a8c60d59247df6d059403612f156ab85e4b408964736f6c634300080d0033",
  "immutableReferences": {},
  "source": "//SPDX-License-Identifier: Unlicense\npragma solidity ^0.8.13;\n\nimport \"@openzeppelin/contracts/utils/Counters.sol\";\nimport \"@openzeppelin/contracts/token/ERC721/extensions/ERC721Enumerable.sol\";\nimport \"@openzeppelin/contracts/access/Ownable.sol\";\nimport \"@openzeppelin/contracts/utils/Strings.sol\";\n\ncontract Sertifikat is ERC721Enumerable, Ownable {\n    using Counters for Counters.Counter;\n    using Strings for uint256;\n\n    string public BASE_URI;\n\n    constructor(\n        string memory baseURI,\n        string memory name,\n        string memory symbol\n    ) ERC721(name, symbol) {\n        BASE_URI = baseURI;\n    }\n\n    function _baseURI() internal view override returns (string memory) {\n        return string(abi.encodePacked(BASE_URI, \"/\"));\n    }\n\n    function mint(address addr) \n        public\n        onlyOwner\n        payable\n        returns (uint256)\n    {\n        uint256 supply = totalSupply();\n        uint256 tokenId = supply + 1;       \n        _safeMint(addr, tokenId);\n        return tokenId;\n    }\n}",
  "sourcePath": "D:\\Dev\\truffle-sample\\contracts\\Sertifikat.sol",
  "compiler": {
    "name": "solc",
    "version": "0.8.13+commit.abaa5c0e.Emscripten.clang"
  },
  "schemaVersion": "3.4.10",
  "updatedAt": "2022-11-16T08:31:05.078Z",
  "devdoc": {
    "kind": "dev",
    "methods": {
      "approve(address,uint256)": {
        "details": "See {IERC721-approve}."
      },
      "balanceOf(address)": {
        "details": "See {IERC721-balanceOf}."
      },
      "getApproved(uint256)": {
        "details": "See {IERC721-getApproved}."
      },
      "isApprovedForAll(address,address)": {
        "details": "See {IERC721-isApprovedForAll}."
      },
      "name()": {
        "details": "See {IERC721Metadata-name}."
      },
      "owner()": {
        "details": "Returns the address of the current owner."
      },
      "ownerOf(uint256)": {
        "details": "See {IERC721-ownerOf}."
      },
      "renounceOwnership()": {
        "details": "Leaves the contract without owner. It will not be possible to call `onlyOwner` functions anymore. Can only be called by the current owner. NOTE: Renouncing ownership will leave the contract without an owner, thereby removing any functionality that is only available to the owner."
      },
      "safeTransferFrom(address,address,uint256)": {
        "details": "See {IERC721-safeTransferFrom}."
      },
      "safeTransferFrom(address,address,uint256,bytes)": {
        "details": "See {IERC721-safeTransferFrom}."
      },
      "setApprovalForAll(address,bool)": {
        "details": "See {IERC721-setApprovalForAll}."
      },
      "supportsInterface(bytes4)": {
        "details": "See {IERC165-supportsInterface}."
      },
      "symbol()": {
        "details": "See {IERC721Metadata-symbol}."
      },
      "tokenByIndex(uint256)": {
        "details": "See {IERC721Enumerable-tokenByIndex}."
      },
      "tokenOfOwnerByIndex(address,uint256)": {
        "details": "See {IERC721Enumerable-tokenOfOwnerByIndex}."
      },
      "tokenURI(uint256)": {
        "details": "See {IERC721Metadata-tokenURI}."
      },
      "totalSupply()": {
        "details": "See {IERC721Enumerable-totalSupply}."
      },
      "transferFrom(address,address,uint256)": {
        "details": "See {IERC721-transferFrom}."
      },
      "transferOwnership(address)": {
        "details": "Transfers ownership of the contract to a new account (`newOwner`). Can only be called by the current owner."
      }
    },
    "version": 1
  },
  "userdoc": {
    "kind": "user",
    "methods": {},
    "version": 1
  }
}